{"abi":[{"constant":true,"inputs":[],"name":"owner","outputs":[{"name":"","type":"address"}],"payable":false,"stateMutability":"view","type":"function"},{"constant":true,"inputs":[],"name":"isOwner","outputs":[{"name":"","type":"bool"}],"payable":false,"stateMutability":"view","type":"function"},{"constant":false,"inputs":[{"name":"newOwner","type":"address"}],"name":"transferOwnership","outputs":[],"payable":false,"stateMutability":"nonpayable","type":"function"},{"inputs":[],"payable":false,"stateMutability":"nonpayable","type":"constructor"}],"devdoc":{"details":"- The Ownable contract has an owner address, and provides basic authorization control functions, this simplifies the implementation of \"user permission\".","methods":{},"title":"Ownable"},"evm":{"assembly":"    /* \"common/Ownable.sol\":228:1550   */\n  mstore(0x40, 0x80)\n    /* \"common/Ownable.sol\":405:461   */\n  callvalue\n    /* \"--CODEGEN--\":8:17   */\n  dup1\n    /* \"--CODEGEN--\":5:7   */\n  iszero\n  tag_1\n  jumpi\n    /* \"--CODEGEN--\":30:31   */\n  0x0\n    /* \"--CODEGEN--\":27:28   */\n  dup1\n    /* \"--CODEGEN--\":20:32   */\n  revert\n    /* \"--CODEGEN--\":5:7   */\ntag_1:\n    /* \"common/Ownable.sol\":405:461   */\n  pop\n    /* \"common/Ownable.sol\":445:454   */\n  origin\n    /* \"common/Ownable.sol\":436:442   */\n  0x0\n  dup1\n    /* \"common/Ownable.sol\":436:454   */\n  0x100\n  exp\n  dup2\n  sload\n  dup2\n  0xffffffffffffffffffffffffffffffffffffffff\n  mul\n  not\n  and\n  swap1\n  dup4\n  0xffffffffffffffffffffffffffffffffffffffff\n  and\n  mul\n  or\n  swap1\n  sstore\n  pop\n    /* \"common/Ownable.sol\":228:1550   */\n  dataSize(sub_0)\n  dup1\n  dataOffset(sub_0)\n  0x0\n  codecopy\n  0x0\n  return\nstop\n\nsub_0: assembly {\n        /* \"common/Ownable.sol\":228:1550   */\n      mstore(0x40, 0x80)\n      jumpi(tag_1, lt(calldatasize, 0x4))\n      calldataload(0x0)\n      0x100000000000000000000000000000000000000000000000000000000\n      swap1\n      div\n      0xffffffff\n      and\n      dup1\n      0x8da5cb5b\n      eq\n      tag_2\n      jumpi\n      dup1\n      0x8f32d59b\n      eq\n      tag_3\n      jumpi\n      dup1\n      0xf2fde38b\n      eq\n      tag_4\n      jumpi\n    tag_1:\n      0x0\n      dup1\n      revert\n        /* \"common/Ownable.sol\":908:985   */\n    tag_2:\n      callvalue\n        /* \"--CODEGEN--\":8:17   */\n      dup1\n        /* \"--CODEGEN--\":5:7   */\n      iszero\n      tag_5\n      jumpi\n        /* \"--CODEGEN--\":30:31   */\n      0x0\n        /* \"--CODEGEN--\":27:28   */\n      dup1\n        /* \"--CODEGEN--\":20:32   */\n      revert\n        /* \"--CODEGEN--\":5:7   */\n    tag_5:\n        /* \"common/Ownable.sol\":908:985   */\n      pop\n      tag_6\n      jump(tag_7)\n    tag_6:\n      mload(0x40)\n      dup1\n      dup3\n      0xffffffffffffffffffffffffffffffffffffffff\n      and\n      0xffffffffffffffffffffffffffffffffffffffff\n      and\n      dup2\n      mstore\n      0x20\n      add\n      swap2\n      pop\n      pop\n      mload(0x40)\n      dup1\n      swap2\n      sub\n      swap1\n      return\n        /* \"common/Ownable.sol\":757:846   */\n    tag_3:\n      callvalue\n        /* \"--CODEGEN--\":8:17   */\n      dup1\n        /* \"--CODEGEN--\":5:7   */\n      iszero\n      tag_8\n      jumpi\n        /* \"--CODEGEN--\":30:31   */\n      0x0\n        /* \"--CODEGEN--\":27:28   */\n      dup1\n        /* \"--CODEGEN--\":20:32   */\n      revert\n        /* \"--CODEGEN--\":5:7   */\n    tag_8:\n        /* \"common/Ownable.sol\":757:846   */\n      pop\n      tag_9\n      jump(tag_10)\n    tag_9:\n      mload(0x40)\n      dup1\n      dup3\n      iszero\n      iszero\n      iszero\n      iszero\n      dup2\n      mstore\n      0x20\n      add\n      swap2\n      pop\n      pop\n      mload(0x40)\n      dup1\n      swap2\n      sub\n      swap1\n      return\n        /* \"common/Ownable.sol\":1166:1273   */\n    tag_4:\n      callvalue\n        /* \"--CODEGEN--\":8:17   */\n      dup1\n        /* \"--CODEGEN--\":5:7   */\n      iszero\n      tag_11\n      jumpi\n        /* \"--CODEGEN--\":30:31   */\n      0x0\n        /* \"--CODEGEN--\":27:28   */\n      dup1\n        /* \"--CODEGEN--\":20:32   */\n      revert\n        /* \"--CODEGEN--\":5:7   */\n    tag_11:\n        /* \"common/Ownable.sol\":1166:1273   */\n      pop\n      tag_12\n      0x4\n      dup1\n      calldatasize\n      sub\n        /* \"--CODEGEN--\":13:15   */\n      0x20\n        /* \"--CODEGEN--\":8:11   */\n      dup2\n        /* \"--CODEGEN--\":5:16   */\n      lt\n        /* \"--CODEGEN--\":2:4   */\n      iszero\n      tag_13\n      jumpi\n        /* \"--CODEGEN--\":29:30   */\n      0x0\n        /* \"--CODEGEN--\":26:27   */\n      dup1\n        /* \"--CODEGEN--\":19:31   */\n      revert\n        /* \"--CODEGEN--\":2:4   */\n    tag_13:\n        /* \"common/Ownable.sol\":1166:1273   */\n      dup2\n      add\n      swap1\n      dup1\n      dup1\n      calldataload\n      0xffffffffffffffffffffffffffffffffffffffff\n      and\n      swap1\n      0x20\n      add\n      swap1\n      swap3\n      swap2\n      swap1\n      pop\n      pop\n      pop\n      jump(tag_14)\n    tag_12:\n      stop\n        /* \"common/Ownable.sol\":908:985   */\n    tag_7:\n        /* \"common/Ownable.sol\":946:953   */\n      0x0\n        /* \"common/Ownable.sol\":972:978   */\n      dup1\n      0x0\n      swap1\n      sload\n      swap1\n      0x100\n      exp\n      swap1\n      div\n      0xffffffffffffffffffffffffffffffffffffffff\n      and\n        /* \"common/Ownable.sol\":965:978   */\n      swap1\n      pop\n        /* \"common/Ownable.sol\":908:985   */\n      swap1\n      jump\t// out\n        /* \"common/Ownable.sol\":757:846   */\n    tag_10:\n        /* \"common/Ownable.sol\":797:801   */\n      0x0\n        /* \"common/Ownable.sol\":833:839   */\n      dup1\n      0x0\n      swap1\n      sload\n      swap1\n      0x100\n      exp\n      swap1\n      div\n      0xffffffffffffffffffffffffffffffffffffffff\n      and\n        /* \"common/Ownable.sol\":820:839   */\n      0xffffffffffffffffffffffffffffffffffffffff\n      and\n        /* \"common/Ownable.sol\":820:829   */\n      origin\n        /* \"common/Ownable.sol\":820:839   */\n      0xffffffffffffffffffffffffffffffffffffffff\n      and\n      eq\n        /* \"common/Ownable.sol\":813:839   */\n      swap1\n      pop\n        /* \"common/Ownable.sol\":757:846   */\n      swap1\n      jump\t// out\n        /* \"common/Ownable.sol\":1166:1273   */\n    tag_14:\n        /* \"common/Ownable.sol\":601:610   */\n      tag_18\n        /* \"common/Ownable.sol\":601:608   */\n      tag_10\n        /* \"common/Ownable.sol\":601:610   */\n      jump\t// in\n    tag_18:\n        /* \"common/Ownable.sol\":580:653   */\n      iszero\n      iszero\n      tag_19\n      jumpi\n      mload(0x40)\n      0x8c379a000000000000000000000000000000000000000000000000000000000\n      dup2\n      mstore\n      0x4\n      add\n      dup1\n      dup1\n      0x20\n      add\n      dup3\n      dup2\n      sub\n      dup3\n      mstore\n      0x11\n      dup2\n      mstore\n      0x20\n      add\n      dup1\n      0x5065726d697373696f6e2064656e696564000000000000000000000000000000\n      dup2\n      mstore\n      pop\n      0x20\n      add\n      swap2\n      pop\n      pop\n      mload(0x40)\n      dup1\n      swap2\n      sub\n      swap1\n      revert\n    tag_19:\n        /* \"common/Ownable.sol\":1238:1266   */\n      tag_21\n        /* \"common/Ownable.sol\":1257:1265   */\n      dup2\n        /* \"common/Ownable.sol\":1238:1256   */\n      tag_22\n        /* \"common/Ownable.sol\":1238:1266   */\n      jump\t// in\n    tag_21:\n        /* \"common/Ownable.sol\":1166:1273   */\n      pop\n      jump\t// out\n        /* \"common/Ownable.sol\":1418:1548   */\n    tag_22:\n        /* \"common/Ownable.sol\":1511:1512   */\n      0x0\n        /* \"common/Ownable.sol\":1491:1513   */\n      0xffffffffffffffffffffffffffffffffffffffff\n      and\n        /* \"common/Ownable.sol\":1491:1499   */\n      dup2\n        /* \"common/Ownable.sol\":1491:1513   */\n      0xffffffffffffffffffffffffffffffffffffffff\n      and\n      eq\n      iszero\n        /* \"common/Ownable.sol\":1483:1514   */\n      iszero\n      iszero\n      tag_24\n      jumpi\n      0x0\n      dup1\n      revert\n    tag_24:\n        /* \"common/Ownable.sol\":1533:1541   */\n      dup1\n        /* \"common/Ownable.sol\":1524:1530   */\n      0x0\n      dup1\n        /* \"common/Ownable.sol\":1524:1541   */\n      0x100\n      exp\n      dup2\n      sload\n      dup2\n      0xffffffffffffffffffffffffffffffffffffffff\n      mul\n      not\n      and\n      swap1\n      dup4\n      0xffffffffffffffffffffffffffffffffffffffff\n      and\n      mul\n      or\n      swap1\n      sstore\n      pop\n        /* \"common/Ownable.sol\":1418:1548   */\n      pop\n      jump\t// out\n\n    auxdata: 0xa165627a7a72305820750bbb0496d948ef4f72c70e4d741d753f585f2162848a940fe8cdffbea57c610029\n}\n","bytecode":{"linkReferences":{},"object":"608060405234801561001057600080fd5b50326000806101000a81548173ffffffffffffffffffffffffffffffffffffffff021916908373ffffffffffffffffffffffffffffffffffffffff1602179055506102e6806100606000396000f3fe608060405260043610610057576000357c0100000000000000000000000000000000000000000000000000000000900463ffffffff1680638da5cb5b1461005c5780638f32d59b146100b3578063f2fde38b146100e2575b600080fd5b34801561006857600080fd5b50610071610133565b604051808273ffffffffffffffffffffffffffffffffffffffff1673ffffffffffffffffffffffffffffffffffffffff16815260200191505060405180910390f35b3480156100bf57600080fd5b506100c861015c565b604051808215151515815260200191505060405180910390f35b3480156100ee57600080fd5b506101316004803603602081101561010557600080fd5b81019080803573ffffffffffffffffffffffffffffffffffffffff1690602001909291905050506101b3565b005b60008060009054906101000a900473ffffffffffffffffffffffffffffffffffffffff16905090565b60008060009054906101000a900473ffffffffffffffffffffffffffffffffffffffff1673ffffffffffffffffffffffffffffffffffffffff163273ffffffffffffffffffffffffffffffffffffffff1614905090565b6101bb61015c565b151561022f576040517f08c379a00000000000000000000000000000000000000000000000000000000081526004018080602001828103825260118152602001807f5065726d697373696f6e2064656e69656400000000000000000000000000000081525060200191505060405180910390fd5b6102388161023b565b50565b600073ffffffffffffffffffffffffffffffffffffffff168173ffffffffffffffffffffffffffffffffffffffff161415151561027757600080fd5b806000806101000a81548173ffffffffffffffffffffffffffffffffffffffff021916908373ffffffffffffffffffffffffffffffffffffffff1602179055505056fea165627a7a72305820750bbb0496d948ef4f72c70e4d741d753f585f2162848a940fe8cdffbea57c610029","opcodes":"PUSH1 0x80 PUSH1 0x40 MSTORE CALLVALUE DUP1 ISZERO PUSH2 0x10 JUMPI PUSH1 0x0 DUP1 REVERT JUMPDEST POP ORIGIN PUSH1 0x0 DUP1 PUSH2 0x100 EXP DUP2 SLOAD DUP2 PUSH20 0xFFFFFFFFFFFFFFFFFFFFFFFFFFFFFFFFFFFFFFFF MUL NOT AND SWAP1 DUP4 PUSH20 0xFFFFFFFFFFFFFFFFFFFFFFFFFFFFFFFFFFFFFFFF AND MUL OR SWAP1 SSTORE POP PUSH2 0x2E6 DUP1 PUSH2 0x60 PUSH1 0x0 CODECOPY PUSH1 0x0 RETURN INVALID PUSH1 0x80 PUSH1 0x40 MSTORE PUSH1 0x4 CALLDATASIZE LT PUSH2 0x57 JUMPI PUSH1 0x0 CALLDATALOAD PUSH29 0x100000000000000000000000000000000000000000000000000000000 SWAP1 DIV PUSH4 0xFFFFFFFF AND DUP1 PUSH4 0x8DA5CB5B EQ PUSH2 0x5C JUMPI DUP1 PUSH4 0x8F32D59B EQ PUSH2 0xB3 JUMPI DUP1 PUSH4 0xF2FDE38B EQ PUSH2 0xE2 JUMPI JUMPDEST PUSH1 0x0 DUP1 REVERT JUMPDEST CALLVALUE DUP1 ISZERO PUSH2 0x68 JUMPI PUSH1 0x0 DUP1 REVERT JUMPDEST POP PUSH2 0x71 PUSH2 0x133 JUMP JUMPDEST PUSH1 0x40 MLOAD DUP1 DUP3 PUSH20 0xFFFFFFFFFFFFFFFFFFFFFFFFFFFFFFFFFFFFFFFF AND PUSH20 0xFFFFFFFFFFFFFFFFFFFFFFFFFFFFFFFFFFFFFFFF AND DUP2 MSTORE PUSH1 0x20 ADD SWAP2 POP POP PUSH1 0x40 MLOAD DUP1 SWAP2 SUB SWAP1 RETURN JUMPDEST CALLVALUE DUP1 ISZERO PUSH2 0xBF JUMPI PUSH1 0x0 DUP1 REVERT JUMPDEST POP PUSH2 0xC8 PUSH2 0x15C JUMP JUMPDEST PUSH1 0x40 MLOAD DUP1 DUP3 ISZERO ISZERO ISZERO ISZERO DUP2 MSTORE PUSH1 0x20 ADD SWAP2 POP POP PUSH1 0x40 MLOAD DUP1 SWAP2 SUB SWAP1 RETURN JUMPDEST CALLVALUE DUP1 ISZERO PUSH2 0xEE JUMPI PUSH1 0x0 DUP1 REVERT JUMPDEST POP PUSH2 0x131 PUSH1 0x4 DUP1 CALLDATASIZE SUB PUSH1 0x20 DUP2 LT ISZERO PUSH2 0x105 JUMPI PUSH1 0x0 DUP1 REVERT JUMPDEST DUP2 ADD SWAP1 DUP1 DUP1 CALLDATALOAD PUSH20 0xFFFFFFFFFFFFFFFFFFFFFFFFFFFFFFFFFFFFFFFF AND SWAP1 PUSH1 0x20 ADD SWAP1 SWAP3 SWAP2 SWAP1 POP POP POP PUSH2 0x1B3 JUMP JUMPDEST STOP JUMPDEST PUSH1 0x0 DUP1 PUSH1 0x0 SWAP1 SLOAD SWAP1 PUSH2 0x100 EXP SWAP1 DIV PUSH20 0xFFFFFFFFFFFFFFFFFFFFFFFFFFFFFFFFFFFFFFFF AND SWAP1 POP SWAP1 JUMP JUMPDEST PUSH1 0x0 DUP1 PUSH1 0x0 SWAP1 SLOAD SWAP1 PUSH2 0x100 EXP SWAP1 DIV PUSH20 0xFFFFFFFFFFFFFFFFFFFFFFFFFFFFFFFFFFFFFFFF AND PUSH20 0xFFFFFFFFFFFFFFFFFFFFFFFFFFFFFFFFFFFFFFFF AND ORIGIN PUSH20 0xFFFFFFFFFFFFFFFFFFFFFFFFFFFFFFFFFFFFFFFF AND EQ SWAP1 POP SWAP1 JUMP JUMPDEST PUSH2 0x1BB PUSH2 0x15C JUMP JUMPDEST ISZERO ISZERO PUSH2 0x22F JUMPI PUSH1 0x40 MLOAD PUSH32 0x8C379A000000000000000000000000000000000000000000000000000000000 DUP2 MSTORE PUSH1 0x4 ADD DUP1 DUP1 PUSH1 0x20 ADD DUP3 DUP2 SUB DUP3 MSTORE PUSH1 0x11 DUP2 MSTORE PUSH1 0x20 ADD DUP1 PUSH32 0x5065726D697373696F6E2064656E696564000000000000000000000000000000 DUP2 MSTORE POP PUSH1 0x20 ADD SWAP2 POP POP PUSH1 0x40 MLOAD DUP1 SWAP2 SUB SWAP1 REVERT JUMPDEST PUSH2 0x238 DUP2 PUSH2 0x23B JUMP JUMPDEST POP JUMP JUMPDEST PUSH1 0x0 PUSH20 0xFFFFFFFFFFFFFFFFFFFFFFFFFFFFFFFFFFFFFFFF AND DUP2 PUSH20 0xFFFFFFFFFFFFFFFFFFFFFFFFFFFFFFFFFFFFFFFF AND EQ ISZERO ISZERO ISZERO PUSH2 0x277 JUMPI PUSH1 0x0 DUP1 REVERT JUMPDEST DUP1 PUSH1 0x0 DUP1 PUSH2 0x100 EXP DUP2 SLOAD DUP2 PUSH20 0xFFFFFFFFFFFFFFFFFFFFFFFFFFFFFFFFFFFFFFFF MUL NOT AND SWAP1 DUP4 PUSH20 0xFFFFFFFFFFFFFFFFFFFFFFFFFFFFFFFFFFFFFFFF AND MUL OR SWAP1 SSTORE POP POP JUMP INVALID LOG1 PUSH6 0x627A7A723058 KECCAK256 PUSH22 0xBBB0496D948EF4F72C70E4D741D753F585F2162848A SWAP5 0xf 0xe8 0xcd SELFDESTRUCT 0xbe 0xa5 PUSH29 0x6100290000000000000000000000000000000000000000000000000000 "},"gasEstimates":{"creation":{"codeDepositCost":"148400","executionCost":"20462","totalCost":"168862"},"external":{"isOwner()":"489","owner()":"450","transferOwnership(address)":"20918"},"internal":{"_transferOwnership(address)":"20322"}},"methodIdentifiers":{"isOwner()":"8f32d59b","owner()":"8da5cb5b","transferOwnership(address)":"f2fde38b"}},"userdoc":{"methods":{}}}